:020000040800F2
:10000000008000201D120008E9110008EB11000813
:10001000ED110008EF110008F111000800000000C8
:10002000000000000000000000000000F3110008C4
:10003000F511000800000000F7110008F911000890
:100040007112000871120008711200087112000884
:100050007112000871120008711200087112000874
:100060007112000871120008711200087112000864
:100070007112000871120008711200087112000854
:1000800071120008000000007112000871120008CF
:100090007112000871120008711200087112000834
:1000A0007112000871120008711200087112000824
:1000B0007112000871120008711200087112000814
:1000C0007112000871120008711200087112000804
:1000D00071120008711200087112000871120008F4
:1000E00071120008711200087112000871120008E4
:1000F000711200087112000871120008000000005F
:1001000000000000711200080000000071120008D9
:10011000711200080000000071120008711200083E
:1001200071120008711200087112000871120008A3
:1001300071120008000000000000000071120008A9
:100140007112000871120008000000000000000099
:10015000000000000000000000000000000000009F
:100160000000000000000000000000007112000804
:1001700071120008000000000000000000000000F4
:1001800000000000711200080000000000000000E4
:10019000000000000000000000000000000000005F
:1001A0000000000000000000711200087112000839
:1001B000711200087112000871120008000000009E
:1001C00000000000711200080000000000000000A4
:0801D000711200087112000811
:10020000044B05481B1A062B02D9044B03B11847AF
:10021000704700BF3F0400203C04002000000000A5
:1002200005490648091A891001EBD171491002D01D
:10023000034B03B1184770473C0400203C040020E6
:100240000000000010B5064C237843B9FFF7D8FF33
:10025000044B13B10448AFF300800123237010BD99
:100260003C040020000000008812000808B5084B7C
:100270001BB108490848AFF300800848036813B968
:10028000BDE80840CCE7064B002BF9D09847F7E7CC
:100290000000000040040020881200083C040020F8
:1002A00000000000002301461A46184600F090B8EE
:1002B00038B50A4C0A4D641BA4100AD004F18043DF
:1002C000013B05EB8305013C55F804399847002CA8
:1002D000F9D1BDE8384000F0DDBF00BFC41200080E
:1002E000C012000870B50F4E0F4D761BB61018BF28
:1002F000002405D0013455F8043B9847A642F9D1B3
:100300000A4E0B4D761B00F0BFFFB61018BF00243D
:1003100006D0013455F8043B9847A642F9D170BD88
:1003200070BD00BFB8120008B8120008C012000863
:10033000B812000870B4860746D0541E002A41D077
:10034000CAB2034602E014F1FF343BD303F8012B99
:100350009D07F8D1032C2ED9CDB245EA05250F2CE7
:1003600045EA054519D903F110022646103E0F2E25
:1003700042F8105C42F80C5C42F8085C42F8045CFD
:1003800002F11002F2D8A4F1100222F00F0204F0E0
:100390000F041032032C13440DD91E462246043A92
:1003A000032A46F8045BFAD8221F22F00302043223
:1003B000134404F003042CB1C9B21C4403F8011B1C
:1003C0009C42FBD170BC704714460346C2E700BF95
:1003D0002DE9F047254C2568D5F848410646884662
:1003E00092469946C4B360681F2817DC431C76B157
:1003F00004EB80050122C5F888A0D4F8881182405A
:100400001143022EC4F88811C5F808911ED002309D
:10041000636044F820800020BDE8F087144B03B3EC
:100420004FF4C870AFF300800446D0B1D5F848311E
:10043000002780E88800C5F8484138460123C4F801
:100440008871C4F88C71002EE1D0D1E7D4F88C11FA
:100450000A43C4F88C21DAE705F5A674C5F84841CB
:10046000C1E74FF0FF30BDE8F08700BFA0120008E1
:1004700000000000104B1B680BB90120704710B53D
:1004800004464FF47A70B0FBF3F30C4A1068B0FBEB
:10049000F3F000F091F868B90F2C01D9012010BDDC
:1004A000002221464FF0FF3000F054F8044B1C604E
:1004B000002010BD012010BD3004002038040020B1
:1004C0003404002010B5032000F032F80020FFF7BC
:1004D000D1FF10B10124204610BD044600F068FE93
:1004E000F9E70000034A1368034909680B441360E5
:1004F000704700BF5804002030040020014B1868EA
:10050000704700BF5804002038B50446FFF7F6FFD7
:100510000546B4F1FF3F02D0044B1B681C44FFF7B3
:10052000EDFF401B8442FAD838BD00BF30040020E4
:10053000074AD36823F4E0631B041B0C000200F499
:10054000E060184340F0BF6040F40030D060704776
:1005500000ED00E030B4164BDB68C3F30223C3F1B7
:100560000704042C28BF04241D1D062D17D9033BA6
:10057000012505FA04F4013C2140994005FA03F3F2
:10058000013B1340194300280BDB0901C9B200F1FC
:10059000604000F5614080F8001330BC70470023D4
:1005A000E6E700F00F000901C9B2024B1954F4E765
:1005B00000ED00E014ED00E00138B0F1807F0AD2D8
:1005C000064B5860F021064A82F8231000209860FC
:1005D00007221A6070470120704700BF10E000E05A
:1005E00000ED00E0F0B583B0002394E085684FEAA9
:1005F000430E032707FA0EF725EA0705CE6806FA29
:100600000EF635438560456825EA04044D68C5F358
:1006100000159D402C434460C6685F000324BC4025
:10062000E44326408D68BD402E43C6604D68022DD0
:1006300000F08580122D00F0828005682C404D6806
:1006400005F00305BD402C4304604C6814F0805F46
:1006500060D04D4C256E45F001052566246E04F0F2
:1006600001040194019C9D08AE1C484C54F826409E
:1006700003F00306B6000F27B74024EA0704B0F1E1
:10068000904F75D0424FB84274D007F58067B8429A
:1006900072D007F58067B84270D007F58067B8421E
:1006A0006ED007F58067B84260D0062707FA06F6D5
:1006B00034430235354E46F82540364C2568D44340
:1006C00005EA04064F6817F4803F01D042EA0506A8
:1006D000304D2E606D6804EA05064F6817F4003F40
:1006E00001D042EA05062B4D6E60AD6804EA0506AE
:1006F0004F6817F4801F01D042EA0506254DAE6011
:10070000ED682C404E6816F4001F01D042EA050443
:10071000204AD46001330A6832FA03F432D001244B
:100720009C402240F6D04D686E1E012E7FF65EAFD3
:10073000112D3FF45BAF122D7FF46EAF56E7DE084C
:10074000083650F8265003F0070E4FEA8E0E4FF091
:100750000F0C0CFA0EFC25EA0C05D1F810C00CFAAF
:100760000EFE45EA0E0540F8265066E705279DE790
:1007700000279BE7012799E7022797E7032795E7DB
:10078000042793E703B0F0BD0010024000000140D1
:1007900000040048000401400AB981627047816189
:1007A00070470000002836D13E4B1B6803F4C0633D
:1007B000B3F5806F08D03B4AD2F8803023F48073C1
:1007C000C2F8803000207047364AD2F8803023F4D7
:1007D0008073C2F88030136823F4C06343F400735D
:1007E0001360314B1A68322303FB02F32F4AA2FB3A
:1007F00003239B0C013300E0013B2A4A526912F4A7
:10080000806F01D0002BF7D1264B5B6913F4806F0A
:1008100044D003207047B0F5007F08D0214A136808
:1008200023F4C06343F480631360002070471D4BC2
:100830001B6803F4C063B3F5806F08D0194AD2F87F
:10084000803043F48073C2F8803000207047154A2E
:10085000D2F8803043F48073C2F88030136823F4F8
:10086000C06343F4007313600F4B1A68322303FB19
:1008700002F30E4AA2FB03239B0C013300E0013B71
:10088000084A526912F4806F01D0002BF7D1054B52
:100890005B6913F4806F03D003207047002070471A
:1008A00000207047007000403804002083DE1B43A6
:1008B000024A936843F4804393607047007000409D
:1008C000124AD36803F00303D068C0F30310013069
:1008D000032B11D00E4BB3FBF0F30C4AD068C0F3DE
:1008E000062000FB03F0094BDB68C3F341630133CF
:1008F0005B00B0FBF3F07047064BB3FBF0F3D0683E
:10090000C0F3062000FB03F0EDE700BF001002403B
:100910000024F40000127A00002800F0608270B514
:1009200082B00446036813F0010F37D0B64A9368CB
:1009300003F00C03D26802F003020C2B23D0082B27
:1009400023D06368B3F5803F4ED0B3F5A02F51D0CC
:10095000AD4B1A6822F480321A601A6822F48022A1
:100960001A606368002B52D0FFF7C8FD0546A64BFE
:100970001B6813F4003F11D1FFF7C0FD401B642832
:10098000F5D9032032E2032AD9D19F4B1B6813F417
:10099000003F03D06368002B00F02382236813F02C
:1009A000020F65D0984A936803F00C03D26802F0F6
:1009B00003020C2B3AD0042B3AD0E368002B74D0FE
:1009C000914A136843F480731360FFF797FD05465F
:1009D0008D4B1B6813F4806F42D1FFF78FFD401BD6
:1009E0000228F5D9032001E2874A136843F48033D3
:1009F0001360B6E703F18043A3F53C331A6842F471
:100A000080221A601A6842F480321A60A9E7FFF760
:100A100075FD05467C4B1B6813F4003FBED0FFF705
:100A20006DFD401B6428F5D90320DFE1022AC2D105
:100A3000754B1B6813F4806F03D0E368002B00F044
:100A4000D281714A536823F0FE43216943EA01636E
:100A500053606E4B1868FFF70DFD48B10120C5E1EA
:100A6000694A536823F0FE43216943EA01635360F6
:100A7000236813F0080F43D0636953B3624AD2F876
:100A8000943043F00103C2F89430FFF737FD054678
:100A90005D4BD3F8943013F0020F31D1FFF72EFDE8
:100AA000401B0228F4D90320A0E1574A136823F41D
:100AB00080731360FFF722FD0546534B1B6813F448
:100AC000806FD5D0FFF71AFD401B0228F5D903200F
:100AD0008CE14D4AD2F8943023F00103C2F89430EF
:100AE000FFF70CFD0546484BD3F8943013F0020F86
:100AF00006D0FFF703FD401B0228F4D9032075E15F
:100B0000236813F0040F00F086803F4B9B6D13F0B9
:100B1000805F39D10123002B38D03B4B9A6D42F0D6
:100B200080529A659B6D03F080530193019B0125D0
:100B3000374B1B6813F4807F2AD0A368012B3BD06E
:100B4000052B41D0304BD3F8902022F00102C3F89E
:100B50009020D3F8902022F00402C3F89020A368DC
:100B6000002B3FD0FFF7CAFC0646274BD3F8903046
:100B700013F0020F4ED1FFF7C1FC801B41F2883306
:100B80009842F2D9032031E10023C4E70025CFE7E2
:100B90001F4A136843F480731360FFF7AFFC0646E7
:100BA0001B4B1B6813F4807FC7D1FFF7A7FC801B8A
:100BB0000228F5D9032019E1134AD2F8903043F006
:100BC0000103C2F89030CAE70F4BD3F8902042F0EF
:100BD0000402C3F89020D3F8902042F00102C3F839
:100BE0009020BCE7FFF78AFC0646074BD3F890300D
:100BF00013F0020F0ED0FFF781FC801B41F2883307
:100C00009842F2D90320F1E00010024034040020A1
:100C100000700040E5B9236813F0200F35D0A369B8
:100C2000E3B1764AD2F8983043F00103C2F8983025
:100C3000FFF764FC0546714BD3F8983013F0020FB0
:100C400023D1FFF75BFC401B0228F4D90320CDE041
:100C50006A4A936D23F080539365DCE7674AD2F8C4
:100C6000983023F00103C2F89830FFF747FC05469F
:100C7000624BD3F8983013F0020F06D0FFF73EFC1A
:100C8000401B0228F4D90320B0E0E369002B00F0F8
:100C9000AC805A4A926802F00C020C2A69D0022BEE
:100CA0001DD0564B1A6822F080721A60DA6822F062
:100CB0000302DA60DA6822F0887222F48032DA60A5
:100CC000FFF71CFC04464D4B1B6813F0007F4ED011
:100CD000FFF714FC001B0228F5D9032086E0474AE1
:100CE000136823F080731360FFF708FC0546434B3D
:100CF0001B6813F0007F06D0FFF700FC401B0228A2
:100D0000F5D9032072E03D4AD3683D491940236A72
:100D1000606A013843EA0013A06A43EA0023206BAB
:100D20004008013843EA4053606B4008013843EA09
:100D30004063E06A43EAC0630B43D360136843F047
:100D400080731360D36843F08073D360FFF7D6FBE2
:100D500004462A4B1B6813F0007F06D1FFF7CEFB39
:100D6000001B0228F5D9032040E000203EE00020CF
:100D70003CE0012B3CD0214BDB6803F00301226AED
:100D8000914201D0012031E003F0F002616A0139A3
:100D9000B2EB011F01D0012028E003F4FE42A16A5A
:100DA000B2EB012F01D0012020E003F07842E16A8C
:100DB000B2EBC16F01D0012018E003F4C001226B37
:100DC0005208013AB1EB425F14D103F0C063626B89
:100DD0005208013AB3EB426F0ED0012006E0012029
:100DE0007047012002E0012000E0002002B070BD49
:100DF0000120FBE70120F9E70020F7E7001002409F
:100E00000C809F011E4B9B6803F00C03042B33D016
:100E10001B4B9B6803F00C03082B2FD0184B9B68CF
:100E200003F00C030C2B01D000207047144BDA6840
:100E300002F00302DB68C3F303130133032A11D169
:100E40001048B0FBF3F30E4AD068C0F3062000FB55
:100E500003F00B4BDB68C3F3416301335B00B0FB72
:100E6000F3F070470848B0FBF3F3054AD068C0F3CD
:100E7000062000FB03F0ECE7034870470148704789
:100E80000010024000127A000024F400002800F054
:100E9000EA80F8B50446764B1B6803F00F038B42DB
:100EA0000CD2734A136823F00F030B4313601368CB
:100EB00003F00F03994201D00120F8BD0D462368CD
:100EC00013F0010F61D06368032B15D0022B33D0D0
:100ED000684B1B6813F4806F00F0C780FFF792FF28
:100EE000654B984235D9634A936823F0F00343F089
:100EF0008003936080272DE05E4B1B6813F0007F1A
:100F000001D10120F8BDFFF7DBFC5B4B98421AD9F9
:100F1000584B9B6813F0F00F05D0236813F0020FB5
:100F200013D0A3689BB9534A936823F0F00343F0AE
:100F30008003936080270DE04E4B1B6813F4003F45
:100F4000CCD10120F8BD002704E0002702E00027F3
:100F500000E00027474A936823F0030361680B43CE
:100F60009360FFF7CBFA0646424B9B6803F00C03F5
:100F70006268B3EB820F09D0FFF7C0FA801B41F221
:100F800088339842F0D90320F8BD0027236813F076
:100F9000020F48D013F0040F04D0364A936843F48C
:100FA000E0639360236813F0080F06D0314A93681A
:100FB00023F47C5343F4E06393602E4A936823F058
:100FC000F003A1680B439360294B1B6803F00F03E8
:100FD0009D4230D3236813F0040F06D0254A93684E
:100FE00023F4E063E1680B439360236813F0080F78
:100FF00007D0204A936823F46053216943EAC10370
:101000009360FFF7FFFE1B4B9B68C3F303131B4A60
:10101000D35C03F01F03D840194B1860194B1868B4
:10102000FFF728FAF8BD002FCED0124A936823F0BC
:10103000F0039360C8E70E4A136823F00F032B43B5
:101040001360FFF75BFA0646094B1B6803F00F03BA
:101050009D42BFD0FFF752FA801B41F2883398427D
:10106000F2D90320F8BD012070470120F8BD00BF70
:10107000002002400010024000B4C404A412000882
:10108000380400203404002030B589B000240394D3
:101090000494059406940794124BDA6C42F0020211
:1010A000DA64DA6C02F002020192019ADA6C42F020
:1010B0000102DA64DB6C03F001030293029B0A4D28
:1010C000224606212846FFF767FB062303930123E8
:1010D00004930594069403A92846FFF783FA09B000
:1010E00030BD00BF001002400004004872B6FEE7A9
:1010F00010B594B03822002106A8FFF71BF9002490
:10110000019402940394049405944FF40070FFF743
:1011100049FB022306934FF48073099340230A93FB
:101120000D9406A8FFF7F8FB68B90F23019301237C
:101130000293002103910491059101A8FFF7A6FEF7
:1011400018B914B010BDFFF7D1FFFFF7CFFF0000B3
:1011500008B5FFF7B7F9FFF7CBFFFFF795FF134C83
:10116000012202212046FFF717FB4FF4FA70FFF728
:10117000CBF9002202212046FFF70EFB4FF4FA7054
:10118000FFF7C2F9012204212046FFF705FB4FF4C7
:10119000FA70FFF7B9F9002204212046FFF7FCFAA4
:1011A0004FF4FA70FFF7B0F9D9E700BF0004004828
:1011B00000B583B00B4B1A6E42F001021A661A6E2C
:1011C00002F001020092009A9A6D42F080529A65F4
:1011D0009B6D03F080530193019BFFF769FB03B004
:1011E0005DF804FB00100240FEE7FEE7FEE7FEE7C5
:1011F000FEE770477047704708B5FFF773F908BD01
:10120000054BD3F8882042F47002C3F888204FF0D1
:1012100000629A60704700BF00ED00E072B6DFF830
:1012200038D0002103E00D4B5B58435004310C488B
:101230000C4B42189A42F6D30B4A02E0002342F8C4
:10124000043B0A4B9A42F9D3FFF7DAFFFFF74AF85B
:1012500062B6FFF77DFF704700800020C4120008CF
:10126000000000203C0400203C0400205C0400201E
:10127000FEE70000024B13B10248FFF713B87047B6
:1012800000000000B1020008F8B500BFF8BC08BCBF
:101290009E467047F8B500BFF8BC08BC9E46704734
:1012A000080000200000000000000000010203040C
:0812B0000607080943000000D5
:0812B800751200086D02000828
:0412C00045020008DB
:1012C400080000200000000000000000F4020020DC
:1012D4005C030020C40300200000000000000000A4
:1012E40000000000000000000000000000000000FA
:1012F400000000000000000000000000B41200081C
:1013040000000000000000000000000000000000D9
:1013140000000000000000000000000000000000C9
:1013240000000000000000000000000000000000B9
:1013340000000000000000000000000000000000A9
:101344000000000000000000000000000000000099
:101354000000000000000000000000000000000089
:101364000000000000000000000000000000000079
:1013740001000000000000000E33CDAB34126DE616
:10138400ECDE05000B00000000000000000000007F
:101394000000000000000000000000000000000049
:1013A4000000000000000000000000000000000039
:1013B4000000000000000000000000000000000029
:1013C4000000000000000000000000000000000019
:0C16F40001000000100000000024F400C1
:040000050800121DC0
:00000001FF
